{
  "contractName": "LuckyGun",
  "abi": [
    {
      "inputs": [],
      "payable": false,
      "stateMutability": "nonpayable",
      "type": "constructor"
    },
    {
      "anonymous": false,
      "inputs": [
        {
          "indexed": true,
          "internalType": "address",
          "name": "playerAddress",
          "type": "address"
        },
        {
          "indexed": false,
          "internalType": "uint256",
          "name": "playerCurrentNumber",
          "type": "uint256"
        },
        {
          "indexed": false,
          "internalType": "address",
          "name": "firstAddress",
          "type": "address"
        },
        {
          "indexed": false,
          "internalType": "uint256",
          "name": "addressBalance",
          "type": "uint256"
        }
      ],
      "name": "Bet",
      "type": "event"
    },
    {
      "anonymous": false,
      "inputs": [
        {
          "indexed": false,
          "internalType": "address payable",
          "name": "winner",
          "type": "address"
        },
        {
          "indexed": false,
          "internalType": "uint256",
          "name": "payout",
          "type": "uint256"
        }
      ],
      "name": "Payout",
      "type": "event"
    },
    {
      "anonymous": false,
      "inputs": [
        {
          "indexed": true,
          "internalType": "address payable",
          "name": "player",
          "type": "address"
        },
        {
          "indexed": false,
          "internalType": "uint256",
          "name": "betSize",
          "type": "uint256"
        }
      ],
      "name": "Play",
      "type": "event"
    },
    {
      "constant": true,
      "inputs": [
        {
          "internalType": "uint256",
          "name": "",
          "type": "uint256"
        }
      ],
      "name": "noncesToPlayer",
      "outputs": [
        {
          "internalType": "address payable",
          "name": "",
          "type": "address"
        }
      ],
      "payable": false,
      "stateMutability": "view",
      "type": "function"
    },
    {
      "constant": true,
      "inputs": [],
      "name": "owner",
      "outputs": [
        {
          "internalType": "address payable",
          "name": "",
          "type": "address"
        }
      ],
      "payable": false,
      "stateMutability": "view",
      "type": "function"
    },
    {
      "constant": true,
      "inputs": [],
      "name": "playerCurrentNumber",
      "outputs": [
        {
          "internalType": "uint256",
          "name": "",
          "type": "uint256"
        }
      ],
      "payable": false,
      "stateMutability": "view",
      "type": "function"
    },
    {
      "constant": true,
      "inputs": [],
      "name": "playerTotalNumber",
      "outputs": [
        {
          "internalType": "uint256",
          "name": "",
          "type": "uint256"
        }
      ],
      "payable": false,
      "stateMutability": "view",
      "type": "function"
    },
    {
      "constant": false,
      "inputs": [
        {
          "internalType": "address",
          "name": "newOwner",
          "type": "address"
        }
      ],
      "name": "transferOwnership",
      "outputs": [],
      "payable": false,
      "stateMutability": "nonpayable",
      "type": "function"
    },
    {
      "constant": false,
      "inputs": [],
      "name": "kill",
      "outputs": [],
      "payable": false,
      "stateMutability": "nonpayable",
      "type": "function"
    },
    {
      "constant": false,
      "inputs": [],
      "name": "fund",
      "outputs": [],
      "payable": true,
      "stateMutability": "payable",
      "type": "function"
    },
    {
      "constant": false,
      "inputs": [],
      "name": "bet",
      "outputs": [],
      "payable": true,
      "stateMutability": "payable",
      "type": "function"
    },
    {
      "constant": false,
      "inputs": [],
      "name": "pickWinner",
      "outputs": [],
      "payable": false,
      "stateMutability": "nonpayable",
      "type": "function"
    },
    {
      "constant": true,
      "inputs": [],
      "name": "getMaxBet",
      "outputs": [
        {
          "internalType": "uint256",
          "name": "",
          "type": "uint256"
        }
      ],
      "payable": false,
      "stateMutability": "view",
      "type": "function"
    }
  ],
  "bytecode": "0x6080604052600660025534801561001557600080fd5b50336000806101000a81548173ffffffffffffffffffffffffffffffffffffffff021916908373ffffffffffffffffffffffffffffffffffffffff16021790555033600160006101000a81548173ffffffffffffffffffffffffffffffffffffffff021916908373ffffffffffffffffffffffffffffffffffffffff1602179055506109ed806100a66000396000f3fe6080604052600436106100915760003560e01c80638da5cb5b116100595780638da5cb5b1461012457806396ad50921461017b578063b60d4288146101a6578063be632464146101b0578063f2fde38b1461022b57610091565b806311610c251461009657806341c0e1b5146100a0578063485bd092146100b75780635d495aea146100e2578063646668b6146100f9575b600080fd5b61009e61027c565b005b3480156100ac57600080fd5b506100b5610479565b005b3480156100c357600080fd5b506100cc61055a565b6040518082815260200191505060405180910390f35b3480156100ee57600080fd5b506100f7610560565b005b34801561010557600080fd5b5061010e610673565b6040518082815260200191505060405180910390f35b34801561013057600080fd5b5061013961067b565b604051808273ffffffffffffffffffffffffffffffffffffffff1673ffffffffffffffffffffffffffffffffffffffff16815260200191505060405180910390f35b34801561018757600080fd5b506101906106a1565b6040518082815260200191505060405180910390f35b6101ae6106a7565b005b3480156101bc57600080fd5b506101e9600480360360208110156101d357600080fd5b81019080803590602001909291905050506106a9565b604051808273ffffffffffffffffffffffffffffffffffffffff1673ffffffffffffffffffffffffffffffffffffffff16815260200191505060405180910390f35b34801561023757600080fd5b5061027a6004803603602081101561024e57600080fd5b81019080803573ffffffffffffffffffffffffffffffffffffffff1690602001909291905050506106dc565b005b610284610673565b3411156102dc576040517f08c379a000000000000000000000000000000000000000000000000000000000815260040180806020018281038252602681526020018061096e6026913960400191505060405180910390fd5b60003411610352576040517f08c379a00000000000000000000000000000000000000000000000000000000081526004018080602001828103825260168152602001807f41206265742073686f756c6420626520706c616365640000000000000000000081525060200191505060405180910390fd5b3360046000600354815260200190815260200160002060006101000a81548173ffffffffffffffffffffffffffffffffffffffff021916908373ffffffffffffffffffffffffffffffffffffffff16021790555060016003540160038190555060004790503373ffffffffffffffffffffffffffffffffffffffff167fba80fe6961f18b77ad6c17bc41d0d426cd9852de6da5e994eda6838b760437686003546004600080815260200190815260200160002060009054906101000a900473ffffffffffffffffffffffffffffffffffffffff1684604051808481526020018373ffffffffffffffffffffffffffffffffffffffff1673ffffffffffffffffffffffffffffffffffffffff168152602001828152602001935050505060405180910390a250565b600160009054906101000a900473ffffffffffffffffffffffffffffffffffffffff1673ffffffffffffffffffffffffffffffffffffffff163373ffffffffffffffffffffffffffffffffffffffff161461051f576040517f08c379a00000000000000000000000000000000000000000000000000000000081526004018080602001828103825260258152602001806109946025913960400191505060405180910390fd5b600160009054906101000a900473ffffffffffffffffffffffffffffffffffffffff1673ffffffffffffffffffffffffffffffffffffffff16ff5b60025481565b6000809054906101000a900473ffffffffffffffffffffffffffffffffffffffff1673ffffffffffffffffffffffffffffffffffffffff163373ffffffffffffffffffffffffffffffffffffffff16146105b957600080fd5b6000600354116105c857600080fd5b60006006434060001c43420101604051602001808281526020019150506040516020818303038152906040528051906020012060001c8161060557fe5b0690506000600682434060001c4342010101604051602001808281526020019150506040516020818303038152906040528051906020012060001c8161064757fe5b06905080821415610663576006600183018161065f57fe5b0690505b61066f8282600a610778565b5050565b600047905090565b600160009054906101000a900473ffffffffffffffffffffffffffffffffffffffff1681565b60035481565b565b60046020528060005260406000206000915054906101000a900473ffffffffffffffffffffffffffffffffffffffff1681565b6000809054906101000a900473ffffffffffffffffffffffffffffffffffffffff1673ffffffffffffffffffffffffffffffffffffffff163373ffffffffffffffffffffffffffffffffffffffff161461073557600080fd5b806000806101000a81548173ffffffffffffffffffffffffffffffffffffffff021916908373ffffffffffffffffffffffffffffffffffffffff16021790555050565b6000811161078257fe5b4781111561078c57fe5b60008090505b6002548110156108c9578381141561082b576004600082815260200190815260200160002060009054906101000a900473ffffffffffffffffffffffffffffffffffffffff1673ffffffffffffffffffffffffffffffffffffffff166108fc6701aa535d3d0c00009081150290604051600060405180830381858888f19350505050158015610825573d6000803e3d6000fd5b506108bc565b82811415610838576108bb565b6004600082815260200190815260200160002060009054906101000a900473ffffffffffffffffffffffffffffffffffffffff1673ffffffffffffffffffffffffffffffffffffffff166108fc670186cc6acd4b00009081150290604051600060405180830381858888f193505050501580156108b9573d6000803e3d6000fd5b505b5b8080600101915050610792565b507f5afeca38b2064c23a692c4cf353015d80ab3ecc417b4f893f372690c11fbd9a66004600085815260200190815260200160002060009054906101000a900473ffffffffffffffffffffffffffffffffffffffff1682604051808373ffffffffffffffffffffffffffffffffffffffff1673ffffffffffffffffffffffffffffffffffffffff1681526020018281526020019250505060405180910390a150505056fe42657420616d6f756e742063616e206e6f7420657863656564206d6178206265742073697a654f6e6c7920746865206f776e65722063616e206b696c6c207468697320636f6e7472616374a265627a7a72315820c4fb9b29adbf38adbca0c515680a3c8d4fad1ebb47ecb8008f73040e6e860b3164736f6c63430005100032",
  "source": "pragma solidity ^0.5.8;\r\n\r\nimport \"./Owned.sol\";\r\n\r\ncontract LuckyGun is Owned {\r\n    address payable public owner;\r\n\r\n    uint256 public playerTotalNumber = 6;\r\n    uint256 public playerCurrentNumber;\r\n\r\n    mapping (uint256 => address payable) public noncesToPlayer;  // nonces -> player address, start from 0\r\n    // [0] = address1 , [1] = address2..   == address[] public players;  players.push(msg.sender);\r\n\r\n    event Play(address payable indexed player, uint256 betSize);\r\n    event Bet(address indexed playerAddress, uint256 playerCurrentNumber, address firstAddress, uint256 addressBalance);\r\n    event Payout(address payable winner, uint256 payout);\r\n\r\n    constructor() public {\r\n        owner = msg.sender;\r\n    }\r\n\r\n    function kill() external {\r\n        require(msg.sender == owner, \"Only the owner can kill this contract\");\r\n        selfdestruct(owner);\r\n    }\r\n\r\n    function fund() external payable {}\r\n\r\n    function bet() public payable {\r\n        require(msg.value <= getMaxBet(), \"Bet amount can not exceed max bet size\");\r\n        require(msg.value > 0, \"A bet should be placed\");\r\n\r\n        noncesToPlayer[playerCurrentNumber] = msg.sender;\r\n        playerCurrentNumber = playerCurrentNumber + 1;\r\n\r\n        uint256 addressBalance = address(this).balance;\r\n\r\n        emit Bet(msg.sender, playerCurrentNumber, noncesToPlayer[0], addressBalance);\r\n    }\r\n\r\n    function pickWinner() public onlyOwner {\r\n        require(playerCurrentNumber > 0);\r\n\r\n        uint winner = uint(keccak256(abi.encodePacked(block.timestamp+block.number+uint(blockhash(block.number)))))%6;\r\n        uint loser = uint(keccak256(abi.encodePacked(block.timestamp+block.number+uint(blockhash(block.number))+winner)))%6;\r\n        if(winner == loser){\r\n            loser = (winner+1)%6;\r\n        }\r\n\r\n        payout(winner, loser, 10);\r\n\r\n    }\r\n\r\n    function getMaxBet() public view returns (uint256) {\r\n        return address(this).balance; // / 100;\r\n    }\r\n\r\n    function generateWinningNumber() internal view returns (uint8) {\r\n        return uint8(block.number % 10 + 1); // Don't do this in production\r\n    }\r\n\r\n    function payout(uint256 winner, uint256 loser, uint256 amount) internal {\r\n        assert(amount > 0);\r\n        assert(amount <= address(this).balance);\r\n\r\n        for (uint i=0; i<playerTotalNumber; i++) {\r\n            if (i == winner) {\r\n                noncesToPlayer[i].transfer(0.12 ether);\r\n            } else if (i == loser) {\r\n                \r\n            } else {\r\n                noncesToPlayer[i].transfer(0.11 ether);\r\n            }\r\n        }\r\n\r\n        emit Payout(noncesToPlayer[winner], amount);\r\n    }\r\n}",
  "sourcePath": "C:\\rd\\truffle-react\\contracts\\LuckyGun.sol",
  "compiler": {
    "name": "solc",
    "version": "0.5.16+commit.9c3226ce.Emscripten.clang"
  },
  "schemaVersion": "3.2.0",
  "updatedAt": "2020-07-17T09:22:23.827Z",
  "devdoc": {
    "methods": {}
  },
  "userdoc": {
    "methods": {}
  }
}