{
  "contractName": "LuckyGunWithZeroPointOne",
  "abi": [
    {
      "anonymous": false,
      "inputs": [
        {
          "indexed": false,
          "internalType": "address",
          "name": "authorizedAddress",
          "type": "address"
        }
      ],
      "name": "Authorized",
      "type": "event"
    },
    {
      "anonymous": false,
      "inputs": [
        {
          "indexed": true,
          "internalType": "address",
          "name": "playerAddress",
          "type": "address"
        }
      ],
      "name": "Bet",
      "type": "event"
    },
    {
      "anonymous": false,
      "inputs": [
        {
          "indexed": false,
          "internalType": "address",
          "name": "authorizedAddress",
          "type": "address"
        }
      ],
      "name": "EmergencyRecovery",
      "type": "event"
    },
    {
      "anonymous": false,
      "inputs": [
        {
          "indexed": false,
          "internalType": "address",
          "name": "winner",
          "type": "address"
        },
        {
          "indexed": false,
          "internalType": "address",
          "name": "loser",
          "type": "address"
        }
      ],
      "name": "GameSettleUp",
      "type": "event"
    },
    {
      "anonymous": false,
      "inputs": [
        {
          "indexed": false,
          "internalType": "bytes",
          "name": "",
          "type": "bytes"
        }
      ],
      "name": "Log",
      "type": "event"
    },
    {
      "payable": true,
      "stateMutability": "payable",
      "type": "fallback"
    },
    {
      "constant": true,
      "inputs": [],
      "name": "authorizedAddress",
      "outputs": [
        {
          "internalType": "address",
          "name": "",
          "type": "address"
        }
      ],
      "payable": false,
      "stateMutability": "view",
      "type": "function"
    },
    {
      "constant": true,
      "inputs": [],
      "name": "betAmount",
      "outputs": [
        {
          "internalType": "uint256",
          "name": "",
          "type": "uint256"
        }
      ],
      "payable": false,
      "stateMutability": "view",
      "type": "function"
    },
    {
      "constant": true,
      "inputs": [],
      "name": "initialized",
      "outputs": [
        {
          "internalType": "bool",
          "name": "",
          "type": "bool"
        }
      ],
      "payable": false,
      "stateMutability": "view",
      "type": "function"
    },
    {
      "constant": true,
      "inputs": [],
      "name": "isInitGame",
      "outputs": [
        {
          "internalType": "bool",
          "name": "",
          "type": "bool"
        }
      ],
      "payable": false,
      "stateMutability": "view",
      "type": "function"
    },
    {
      "constant": true,
      "inputs": [],
      "name": "isSetGameResut",
      "outputs": [
        {
          "internalType": "bool",
          "name": "",
          "type": "bool"
        }
      ],
      "payable": false,
      "stateMutability": "view",
      "type": "function"
    },
    {
      "constant": true,
      "inputs": [],
      "name": "isSettleUpGame",
      "outputs": [
        {
          "internalType": "bool",
          "name": "",
          "type": "bool"
        }
      ],
      "payable": false,
      "stateMutability": "view",
      "type": "function"
    },
    {
      "constant": true,
      "inputs": [
        {
          "internalType": "uint256",
          "name": "",
          "type": "uint256"
        }
      ],
      "name": "noncesToPlayer",
      "outputs": [
        {
          "internalType": "address payable",
          "name": "",
          "type": "address"
        }
      ],
      "payable": false,
      "stateMutability": "view",
      "type": "function"
    },
    {
      "constant": true,
      "inputs": [],
      "name": "platformAddress",
      "outputs": [
        {
          "internalType": "address payable",
          "name": "",
          "type": "address"
        }
      ],
      "payable": false,
      "stateMutability": "view",
      "type": "function"
    },
    {
      "constant": true,
      "inputs": [],
      "name": "playerCurrentNumber",
      "outputs": [
        {
          "internalType": "uint256",
          "name": "",
          "type": "uint256"
        }
      ],
      "payable": false,
      "stateMutability": "view",
      "type": "function"
    },
    {
      "constant": true,
      "inputs": [],
      "name": "playerTotalNumber",
      "outputs": [
        {
          "internalType": "uint256",
          "name": "",
          "type": "uint256"
        }
      ],
      "payable": false,
      "stateMutability": "view",
      "type": "function"
    },
    {
      "constant": true,
      "inputs": [],
      "name": "recoveryAddress",
      "outputs": [
        {
          "internalType": "address",
          "name": "",
          "type": "address"
        }
      ],
      "payable": false,
      "stateMutability": "view",
      "type": "function"
    },
    {
      "constant": false,
      "inputs": [
        {
          "internalType": "address",
          "name": "_authorizedAddress",
          "type": "address"
        },
        {
          "internalType": "address",
          "name": "_recoveryAddress",
          "type": "address"
        },
        {
          "internalType": "address payable",
          "name": "_platformAddress",
          "type": "address"
        }
      ],
      "name": "init",
      "outputs": [],
      "payable": false,
      "stateMutability": "nonpayable",
      "type": "function"
    },
    {
      "constant": false,
      "inputs": [
        {
          "internalType": "address",
          "name": "_authorizedAddress",
          "type": "address"
        }
      ],
      "name": "emergencyRecovery",
      "outputs": [],
      "payable": false,
      "stateMutability": "nonpayable",
      "type": "function"
    },
    {
      "constant": false,
      "inputs": [],
      "name": "playerBet",
      "outputs": [],
      "payable": true,
      "stateMutability": "payable",
      "type": "function"
    },
    {
      "constant": false,
      "inputs": [],
      "name": "settleUp",
      "outputs": [],
      "payable": false,
      "stateMutability": "nonpayable",
      "type": "function"
    }
  ],
  "bytecode": "0x608060405267016345785d8a0000600255600660035534801561002157600080fd5b50611211806100316000396000f3fe6080604052600436106100e85760003560e01c806388a116a91161008a578063dbe55e5611610059578063dbe55e56146103ee578063e709100914610445578063ecde4e9a14610474578063fa86eb6e146104a3576100e8565b806388a116a9146102ee57806396ad50921461031d578063be63246414610348578063d24257c0146103c3576100e8565b80635287b84b116100c65780635287b84b146101d85780635539d400146101ef57806365e5326014610246578063710eb26c14610297576100e8565b8063158ef93e146100ed578063184b95591461011c578063485bd092146101ad575b600080fd5b3480156100f957600080fd5b506101026104ad565b604051808215151515815260200191505060405180910390f35b34801561012857600080fd5b506101ab6004803603606081101561013f57600080fd5b81019080803573ffffffffffffffffffffffffffffffffffffffff169060200190929190803573ffffffffffffffffffffffffffffffffffffffff169060200190929190803573ffffffffffffffffffffffffffffffffffffffff1690602001909291905050506104c0565b005b3480156101b957600080fd5b506101c26106a1565b6040518082815260200191505060405180910390f35b3480156101e457600080fd5b506101ed6106a7565b005b3480156101fb57600080fd5b50610204610bac565b604051808273ffffffffffffffffffffffffffffffffffffffff1673ffffffffffffffffffffffffffffffffffffffff16815260200191505060405180910390f35b34801561025257600080fd5b506102956004803603602081101561026957600080fd5b81019080803573ffffffffffffffffffffffffffffffffffffffff169060200190929190505050610bd1565b005b3480156102a357600080fd5b506102ac610e67565b604051808273ffffffffffffffffffffffffffffffffffffffff1673ffffffffffffffffffffffffffffffffffffffff16815260200191505060405180910390f35b3480156102fa57600080fd5b50610303610e8d565b604051808215151515815260200191505060405180910390f35b34801561032957600080fd5b50610332610ea0565b6040518082815260200191505060405180910390f35b34801561035457600080fd5b506103816004803603602081101561036b57600080fd5b8101908080359060200190929190505050610ea6565b604051808273ffffffffffffffffffffffffffffffffffffffff1673ffffffffffffffffffffffffffffffffffffffff16815260200191505060405180910390f35b3480156103cf57600080fd5b506103d8610ed9565b6040518082815260200191505060405180910390f35b3480156103fa57600080fd5b50610403610edf565b604051808273ffffffffffffffffffffffffffffffffffffffff1673ffffffffffffffffffffffffffffffffffffffff16815260200191505060405180910390f35b34801561045157600080fd5b5061045a610f05565b604051808215151515815260200191505060405180910390f35b34801561048057600080fd5b50610489610f18565b604051808215151515815260200191505060405180910390f35b6104ab610f2b565b005b600160149054906101000a900460ff1681565b600160149054906101000a900460ff1615610543576040517f08c379a000000000000000000000000000000000000000000000000000000000815260040180806020018281038252601f8152602001807f6d757374206e6f7420616c726561647920626520696e697469616c697a65640081525060200191505060405180910390fd5b60018060146101000a81548160ff021916908315150217905550826000806101000a81548173ffffffffffffffffffffffffffffffffffffffff021916908373ffffffffffffffffffffffffffffffffffffffff16021790555081600160006101000a81548173ffffffffffffffffffffffffffffffffffffffff021916908373ffffffffffffffffffffffffffffffffffffffff16021790555080600460006101000a81548173ffffffffffffffffffffffffffffffffffffffff021916908373ffffffffffffffffffffffffffffffffffffffff16021790555060018060156101000a81548160ff0219169083151502179055507fdc84e3a4c83602050e3865df792a4e6800211a79ac60db94e703a820ce89292483604051808273ffffffffffffffffffffffffffffffffffffffff1673ffffffffffffffffffffffffffffffffffffffff16815260200191505060405180910390a1505050565b60035481565b6000809054906101000a900473ffffffffffffffffffffffffffffffffffffffff1673ffffffffffffffffffffffffffffffffffffffff163373ffffffffffffffffffffffffffffffffffffffff161461074c576040517f08c379a00000000000000000000000000000000000000000000000000000000081526004018080602001828103825260218152602001806111836021913960400191505060405180910390fd5b600354600554146107c5576040517f08c379a000000000000000000000000000000000000000000000000000000000815260040180806020018281038252600c8152602001807f67616d65206e6f7420656e64000000000000000000000000000000000000000081525060200191505060405180910390fd5b600160179054906101000a900460ff1615610848576040517f08c379a00000000000000000000000000000000000000000000000000000000081526004018080602001828103825260138152602001807f67616d652068617320736574746c65642075700000000000000000000000000081525060200191505060405180910390fd5b60018060176101000a81548160ff02191690831515021790555060006006434060001c43420101604051602001808281526020019150506040516020818303038152906040528051906020012060001c8161089f57fe5b0690506000600682434060001c4342010101604051602001808281526020019150506040516020818303038152906040528051906020012060001c816108e157fe5b069050808214156108fd57600660018301816108f957fe5b0690505b60008090505b600354811015610a3a578281141561099c576006600082815260200190815260200160002060009054906101000a900473ffffffffffffffffffffffffffffffffffffffff1673ffffffffffffffffffffffffffffffffffffffff166108fc6701aa535d3d0c00009081150290604051600060405180830381858888f19350505050158015610996573d6000803e3d6000fd5b50610a2d565b818114156109a957610a2c565b6006600082815260200190815260200160002060009054906101000a900473ffffffffffffffffffffffffffffffffffffffff1673ffffffffffffffffffffffffffffffffffffffff166108fc670186cc6acd4b00009081150290604051600060405180830381858888f19350505050158015610a2a573d6000803e3d6000fd5b505b5b8080600101915050610903565b50600460009054906101000a900473ffffffffffffffffffffffffffffffffffffffff1673ffffffffffffffffffffffffffffffffffffffff166108fc668e1bc9bf0400009081150290604051600060405180830381858888f19350505050158015610aaa573d6000803e3d6000fd5b507f2ba4703510b55acc0f0acdfbf6aeb0d7f8a89739ba0d4218ebfb6e89dd6e4c1b6006600084815260200190815260200160002060009054906101000a900473ffffffffffffffffffffffffffffffffffffffff166006600084815260200190815260200160002060009054906101000a900473ffffffffffffffffffffffffffffffffffffffff16604051808373ffffffffffffffffffffffffffffffffffffffff1673ffffffffffffffffffffffffffffffffffffffff1681526020018273ffffffffffffffffffffffffffffffffffffffff1673ffffffffffffffffffffffffffffffffffffffff1681526020019250505060405180910390a15050565b6000809054906101000a900473ffffffffffffffffffffffffffffffffffffffff1681565b600160009054906101000a900473ffffffffffffffffffffffffffffffffffffffff1673ffffffffffffffffffffffffffffffffffffffff163373ffffffffffffffffffffffffffffffffffffffff1614610c94576040517f08c379a000000000000000000000000000000000000000000000000000000000815260040180806020018281038252601f8152602001807f73656e646572206d757374206265207265636f7665727920616464726573730081525060200191505060405180910390fd5b600073ffffffffffffffffffffffffffffffffffffffff168173ffffffffffffffffffffffffffffffffffffffff161415610d1a576040517f08c379a000000000000000000000000000000000000000000000000000000000815260040180806020018281038252602681526020018061115d6026913960400191505060405180910390fd5b600160009054906101000a900473ffffffffffffffffffffffffffffffffffffffff1673ffffffffffffffffffffffffffffffffffffffff168173ffffffffffffffffffffffffffffffffffffffff161415610dc1576040517f08c379a00000000000000000000000000000000000000000000000000000000081526004018080602001828103825260398152602001806111a46039913960400191505060405180910390fd5b806000806101000a81548173ffffffffffffffffffffffffffffffffffffffff021916908373ffffffffffffffffffffffffffffffffffffffff1602179055507f21867dc03c8a7c783db4b956a15551a5195ec965c0d92ef2bc731ace8732c02081604051808273ffffffffffffffffffffffffffffffffffffffff1673ffffffffffffffffffffffffffffffffffffffff16815260200191505060405180910390a150565b600160009054906101000a900473ffffffffffffffffffffffffffffffffffffffff1681565b600160159054906101000a900460ff1681565b60055481565b60066020528060005260406000206000915054906101000a900473ffffffffffffffffffffffffffffffffffffffff1681565b60025481565b600460009054906101000a900473ffffffffffffffffffffffffffffffffffffffff1681565b600160179054906101000a900460ff1681565b600160169054906101000a900460ff1681565b600160159054906101000a900460ff16610fad576040517f08c379a00000000000000000000000000000000000000000000000000000000081526004018080602001828103825260188152602001807f67616d6520686173206e6f7420696e697469616c697a6564000000000000000081525060200191505060405180910390fd5b600160179054906101000a900460ff1615611030576040517f08c379a00000000000000000000000000000000000000000000000000000000081526004018080602001828103825260138152602001807f67616d652068617320736574746c65642075700000000000000000000000000081525060200191505060405180910390fd5b600354600554106110a9576040517f08c379a000000000000000000000000000000000000000000000000000000000815260040180806020018281038252600f8152602001807f706c61796572206f766572666c6f77000000000000000000000000000000000081525060200191505060405180910390fd5b60025434146110b757600080fd5b3360066000600554815260200190815260200160002060006101000a81548173ffffffffffffffffffffffffffffffffffffffff021916908373ffffffffffffffffffffffffffffffffffffffff1602179055506001600554016005819055503373ffffffffffffffffffffffffffffffffffffffff167fb7d130e59ce2d673030116a965b2ef42f68547155234b2a8762c19711831d23660405160405180910390a256fe417574686f72697a656420616464726573736573206d757374206e6f74206265207a65726f2e73656e646572206d75737420626520617574686f72697a65642061646472657373446f206e6f742075736520746865207265636f76657279206164647265737320617320616e20617574686f72697a656420616464726573732ea265627a7a7231582012d0012ac3c96e548dc8fa174c99aebe12a6aaf6328c0a478d53da5e53269d7464736f6c63430005100032",
  "source": "pragma solidity ^0.5.4;\r\n\r\nlibrary SafeMath {\r\n    function add(uint256 a, uint256 b) internal pure returns (uint256) {\r\n        uint256 c = a + b;\r\n        require(c >= a, \"SafeMath: addition overflow\");\r\n\r\n        return c;\r\n    }\r\n    function sub(uint256 a, uint256 b) internal pure returns (uint256) {\r\n        return sub(a, b, \"SafeMath: subtraction overflow\");\r\n    }\r\n    function sub(uint256 a, uint256 b, string memory errorMessage) internal pure returns (uint256) {\r\n        require(b <= a, errorMessage);\r\n        uint256 c = a - b;\r\n\r\n        return c;\r\n    }\r\n    function mul(uint256 a, uint256 b) internal pure returns (uint256) {\r\n        if (a == 0) {\r\n            return 0;\r\n        }\r\n\r\n        uint256 c = a * b;\r\n        require(c / a == b, \"SafeMath: multiplication overflow\");\r\n\r\n        return c;\r\n    }\r\n    function div(uint256 a, uint256 b) internal pure returns (uint256) {\r\n        return div(a, b, \"SafeMath: division by zero\");\r\n    }\r\n    function div(uint256 a, uint256 b, string memory errorMessage) internal pure returns (uint256) {\r\n        require(b > 0, errorMessage);\r\n        uint256 c = a / b;\r\n        // assert(a == b * c + a % b); // There is no case in which this doesn't hold\r\n\r\n        return c;\r\n    }\r\n}\r\n\r\ncontract LuckyGunWithZeroPointOne {\r\n    using SafeMath for uint256;\r\n    \r\n    address public authorizedAddress;\r\n    address public recoveryAddress;\r\n\r\n    bool public initialized;\r\n\r\n    bool public isInitGame;\r\n    bool public isSetGameResut;\r\n    bool public isSettleUpGame;\r\n    // uint256 public startTime;\r\n    // uint256 public expiredTime;\r\n    uint256 public betAmount = 0.1 ether;\r\n    uint256 public playerTotalNumber = 6;\r\n    // uint256 public winnerNumer;\r\n    address payable public platformAddress;\r\n\r\n    uint256 public playerCurrentNumber;\r\n    mapping (uint256 => address payable) public noncesToPlayer;  // nonces -> player address, start from 0\r\n\r\n    modifier onlyOnce() {\r\n        require(!initialized, \"must not already be initialized\");\r\n        initialized = true;\r\n        _;\r\n    }\r\n    \r\n    modifier onlyRecoveryAddress() {\r\n        require(msg.sender == recoveryAddress, \"sender must be recovery address\");\r\n        _;\r\n    }\r\n    \r\n    modifier onlyAuthorizedAddress() {\r\n        require(msg.sender == authorizedAddress, \"sender must be authorized address\");\r\n        _;\r\n    }\r\n    \r\n    event Authorized(address authorizedAddress);\r\n    event EmergencyRecovery(address authorizedAddress);\r\n    event Bet(address indexed playerAddress);\r\n    event GameSettleUp(address winner, address loser);\r\n\r\n\r\n    event Log(bytes);\r\n\r\n    function init(address _authorizedAddress, address _recoveryAddress, address payable _platformAddress) public onlyOnce {\r\n        authorizedAddress = _authorizedAddress;\r\n        recoveryAddress = _recoveryAddress;\r\n        platformAddress = _platformAddress;\r\n        \r\n        isInitGame = true;\r\n        \r\n        emit Authorized(_authorizedAddress);\r\n    }\r\n    \r\n    function() external payable {\r\n        revert();\r\n    }\r\n    \r\n    function emergencyRecovery(address _authorizedAddress) external onlyRecoveryAddress {\r\n        require(_authorizedAddress != address(0), \"Authorized addresses must not be zero.\");\r\n        require(_authorizedAddress != recoveryAddress, \"Do not use the recovery address as an authorized address.\");\r\n\r\n        authorizedAddress = _authorizedAddress;\r\n\r\n        emit EmergencyRecovery(_authorizedAddress);\r\n    }\r\n\r\n    function playerBet() payable public {\r\n        require(isInitGame, \"game has not initialized\");\r\n        // require(now<=expiredTime, \"bet disable\");\r\n        // require(!isSetGameResut, \"game result has initialized\");\r\n        require(!isSettleUpGame, \"game has settled up\");\r\n        require(playerCurrentNumber<playerTotalNumber, \"player overflow\");\r\n        require(msg.value == betAmount);\r\n        \r\n        noncesToPlayer[playerCurrentNumber] = msg.sender;\r\n     \r\n        playerCurrentNumber = playerCurrentNumber + 1;\r\n\r\n        emit Bet(msg.sender);\r\n    }\r\n    \r\n    function settleUp() public onlyAuthorizedAddress {\r\n        require(playerCurrentNumber == playerTotalNumber, \"game not end\");\r\n        require(!isSettleUpGame, \"game has settled up\");\r\n\r\n        isSettleUpGame = true;\r\n        \r\n        uint winner = uint(keccak256(abi.encodePacked(block.timestamp+block.number+uint(blockhash(block.number)))))%6;\r\n        uint loser = uint(keccak256(abi.encodePacked(block.timestamp+block.number+uint(blockhash(block.number))+winner)))%6;\r\n        if(winner == loser){\r\n            loser = (winner+1)%6;\r\n        }\r\n        \r\n        for (uint i=0; i<playerTotalNumber; i++) {\r\n            if (i == winner) {\r\n                noncesToPlayer[i].transfer(0.12 ether);\r\n            } else if (i == loser) {\r\n                \r\n            } else {\r\n                noncesToPlayer[i].transfer(0.11 ether);\r\n            }\r\n        }\r\n        \r\n        platformAddress.transfer(0.04 ether);\r\n        \r\n        emit GameSettleUp(noncesToPlayer[winner], noncesToPlayer[loser]);   \r\n\r\n    }\r\n}",
  "sourcePath": "C:\\rd\\truffle-react\\contracts\\LuckyGun.sol",
  "compiler": {
    "name": "solc",
    "version": "0.5.16+commit.9c3226ce.Emscripten.clang"
  },
  "schemaVersion": "3.2.0",
  "updatedAt": "2020-07-17T03:34:10.267Z",
  "devdoc": {
    "methods": {}
  },
  "userdoc": {
    "methods": {}
  }
}